{
  "contractName": "VotingApp",
  "abi": [
    {
      "inputs": [],
      "stateMutability": "nonpayable",
      "type": "constructor"
    },
    {
      "anonymous": false,
      "inputs": [
        {
          "indexed": false,
          "internalType": "address",
          "name": "account",
          "type": "address"
        },
        {
          "indexed": false,
          "internalType": "string",
          "name": "message",
          "type": "string"
        }
      ],
      "name": "Completed",
      "type": "event"
    },
    {
      "inputs": [],
      "name": "owner",
      "outputs": [
        {
          "internalType": "address",
          "name": "",
          "type": "address"
        }
      ],
      "stateMutability": "view",
      "type": "function"
    },
    {
      "inputs": [],
      "name": "VoteForTrump",
      "outputs": [],
      "stateMutability": "nonpayable",
      "type": "function"
    },
    {
      "inputs": [],
      "name": "VoteForBiden",
      "outputs": [],
      "stateMutability": "nonpayable",
      "type": "function"
    },
    {
      "inputs": [],
      "name": "totalVote",
      "outputs": [
        {
          "internalType": "uint256",
          "name": "",
          "type": "uint256"
        }
      ],
      "stateMutability": "view",
      "type": "function"
    },
    {
      "inputs": [],
      "name": "selectWinner",
      "outputs": [
        {
          "internalType": "string",
          "name": "",
          "type": "string"
        }
      ],
      "stateMutability": "view",
      "type": "function"
    }
  ],
  "bytecode": "0x608060405234801561001057600080fd5b50336000806101000a81548173ffffffffffffffffffffffffffffffffffffffff021916908373ffffffffffffffffffffffffffffffffffffffff16021790555061096f806100606000396000f3fe608060405234801561001057600080fd5b50600436106100575760003560e01c806333a99e041461005c5780638da5cb5b1461007a578063c4c0a74514610098578063d63dd9b5146100a2578063f1cea4c7146100ac575b600080fd5b6100646100ca565b6040516100719190610556565b60405180910390f35b61008261020a565b60405161008f91906105b9565b60405180910390f35b6100a061022e565b005b6100aa61036a565b005b6100b46104a6565b6040516100c191906105ed565b60405180910390f35b606060008054906101000a900473ffffffffffffffffffffffffffffffffffffffff1673ffffffffffffffffffffffffffffffffffffffff163373ffffffffffffffffffffffffffffffffffffffff161461015a576040517f08c379a00000000000000000000000000000000000000000000000000000000081526004016101519061067a565b60405180910390fd5b6002546001540361018557604051806060016040528060268152602001610914602691399050610207565b60025460015411156101ce576040518060400160405280601d81526020017f5472756d702069732077696e6e6572206f6620456c656374696f6e732e0000008152509050610207565b6040518060400160405280601d81526020017f426964656e2069732077696e6e6572206f6620456c656374696f6e732e00000081525090505b90565b60008054906101000a900473ffffffffffffffffffffffffffffffffffffffff1681565b60001515600360003373ffffffffffffffffffffffffffffffffffffffff1673ffffffffffffffffffffffffffffffffffffffff16815260200190815260200160002060009054906101000a900460ff161515146102c1576040517f08c379a00000000000000000000000000000000000000000000000000000000081526004016102b8906106e6565b60405180910390fd5b6001600360003373ffffffffffffffffffffffffffffffffffffffff1673ffffffffffffffffffffffffffffffffffffffff16815260200190815260200160002060006101000a81548160ff0219169083151502179055506002600081548092919061032c90610735565b91905055507f02cd2b984b03711a95623ede6290bc328c95c12bb0f20bd758678e3d2fcdf8c23360405161036091906107ef565b60405180910390a1565b60001515600360003373ffffffffffffffffffffffffffffffffffffffff1673ffffffffffffffffffffffffffffffffffffffff16815260200190815260200160002060009054906101000a900460ff161515146103fd576040517f08c379a00000000000000000000000000000000000000000000000000000000081526004016103f4906106e6565b60405180910390fd5b6001600360003373ffffffffffffffffffffffffffffffffffffffff1673ffffffffffffffffffffffffffffffffffffffff16815260200190815260200160002060006101000a81548160ff0219169083151502179055506001600081548092919061046890610735565b91905055507f02cd2b984b03711a95623ede6290bc328c95c12bb0f20bd758678e3d2fcdf8c23360405161049c919061088f565b60405180910390a1565b60006002546001546104b891906108bd565b905090565b600081519050919050565b600082825260208201905092915050565b60005b838110156104f75780820151818401526020810190506104dc565b83811115610506576000848401525b50505050565b6000601f19601f8301169050919050565b6000610528826104bd565b61053281856104c8565b93506105428185602086016104d9565b61054b8161050c565b840191505092915050565b60006020820190508181036000830152610570818461051d565b905092915050565b600073ffffffffffffffffffffffffffffffffffffffff82169050919050565b60006105a382610578565b9050919050565b6105b381610598565b82525050565b60006020820190506105ce60008301846105aa565b92915050565b6000819050919050565b6105e7816105d4565b82525050565b600060208201905061060260008301846105de565b92915050565b7f546869732066756e6374696f6e206973207265737472696374656420746f207460008201527f686520636f6e74726163742773206f776e657200000000000000000000000000602082015250565b60006106646033836104c8565b915061066f82610608565b604082019050919050565b6000602082019050818103600083015261069381610657565b9050919050565b7f596f7520616c726561647920566f7465642e0000000000000000000000000000600082015250565b60006106d06012836104c8565b91506106db8261069a565b602082019050919050565b600060208201905081810360008301526106ff816106c3565b9050919050565b7f4e487b7100000000000000000000000000000000000000000000000000000000600052601160045260246000fd5b6000610740826105d4565b91507fffffffffffffffffffffffffffffffffffffffffffffffffffffffffffffffff820361077257610771610706565b5b600182019050919050565b7f596f75205375636365737366756c6c7920566f74656420666f7220426964656e60008201527f2e00000000000000000000000000000000000000000000000000000000000000602082015250565b60006107d96021836104c8565b91506107e48261077d565b604082019050919050565b600060408201905061080460008301846105aa565b8181036020830152610815816107cc565b905092915050565b7f596f75205375636365737366756c6c7920566f74656420666f72205472756d7060008201527f2e00000000000000000000000000000000000000000000000000000000000000602082015250565b60006108796021836104c8565b91506108848261081d565b604082019050919050565b60006040820190506108a460008301846105aa565b81810360208301526108b58161086c565b905092915050565b60006108c8826105d4565b91506108d3836105d4565b9250827fffffffffffffffffffffffffffffffffffffffffffffffffffffffffffffffff0382111561090857610907610706565b5b82820190509291505056fe456c656374696f6e7320546965206265747765656e205472756d7020616e6420426964656e2ea264697066735822122086b3fdb085fdd8642f956cb68a08f24e32e8caff694fcdcdd9683fe946f2f5b964736f6c634300080e0033",
  "immutableReferences": {},
  "source": "//SPDX-License-Identifier: MIT\r\npragma solidity >=0.8.0 <0.9.0;\r\n\r\nimport \"./IVotingApp.sol\";\r\n\r\ncontract VotingApp is IVotingApp {\r\n    address public owner;\r\n\r\n    constructor() {\r\n        owner = msg.sender;\r\n    }\r\n\r\n    uint256 voteForTrump;\r\n    uint256 voteForBiden;\r\n    mapping(address => bool) alreadyVoted;\r\n\r\n    modifier onlyOwner() {\r\n        require(\r\n            msg.sender == owner,\r\n            \"This function is restricted to the contract's owner\"\r\n        );\r\n        _;\r\n    }\r\n\r\n    function VoteForTrump() public {\r\n        require(alreadyVoted[msg.sender] == false, \"You already Voted.\");\r\n        alreadyVoted[msg.sender] = true;\r\n        voteForTrump++;\r\n        emit Completed(msg.sender, \"You Successfully Voted for Trump.\");\r\n    }\r\n\r\n    function VoteForBiden() public {\r\n        require(alreadyVoted[msg.sender] == false, \"You already Voted.\");\r\n        alreadyVoted[msg.sender] = true;\r\n        voteForBiden++;\r\n        emit Completed(msg.sender, \"You Successfully Voted for Biden.\");\r\n    }\r\n\r\n    function totalVote() public view returns (uint256) {\r\n        return (voteForTrump + voteForBiden);\r\n    }\r\n\r\n    function selectWinner() public view onlyOwner returns (string memory) {\r\n        if (voteForTrump == voteForBiden)\r\n            return (\"Elections Tie between Trump and Biden.\");\r\n        else if (voteForTrump > voteForBiden)\r\n            return (\"Trump is winner of Elections.\");\r\n        else return (\"Biden is winner of Elections.\");\r\n    }\r\n}\r\n",
  "sourcePath": "C:\\Users\\Neosoft\\Desktop\\NeoSoft\\Assignments\\VotingApp\\contracts\\VotingApp.sol",
  "compiler": {
    "name": "solc",
    "version": "0.8.14+commit.80d49f37.Emscripten.clang"
  },
  "schemaVersion": "3.4.7",
  "updatedAt": "2022-06-20T06:14:55.503Z",
  "devdoc": {
    "kind": "dev",
    "methods": {},
    "version": 1
  },
  "userdoc": {
    "kind": "user",
    "methods": {},
    "version": 1
  }
}