{
  "contractName": "Voting",
  "abi": [
    {
      "inputs": [],
      "stateMutability": "nonpayable",
      "type": "constructor"
    },
    {
      "inputs": [],
      "name": "owner",
      "outputs": [
        {
          "internalType": "address",
          "name": "",
          "type": "address"
        }
      ],
      "stateMutability": "view",
      "type": "function",
      "constant": true
    },
    {
      "inputs": [],
      "name": "VoteForTrump",
      "outputs": [
        {
          "internalType": "string",
          "name": "",
          "type": "string"
        }
      ],
      "stateMutability": "nonpayable",
      "type": "function"
    },
    {
      "inputs": [],
      "name": "VoteForBiden",
      "outputs": [
        {
          "internalType": "string",
          "name": "",
          "type": "string"
        }
      ],
      "stateMutability": "nonpayable",
      "type": "function"
    },
    {
      "inputs": [],
      "name": "totalVote",
      "outputs": [
        {
          "internalType": "uint256",
          "name": "",
          "type": "uint256"
        }
      ],
      "stateMutability": "view",
      "type": "function",
      "constant": true
    },
    {
      "inputs": [],
      "name": "selectWinner",
      "outputs": [
        {
          "internalType": "string",
          "name": "",
          "type": "string"
        }
      ],
      "stateMutability": "view",
      "type": "function",
      "constant": true
    }
  ],
  "bytecode": "0x608060405234801561001057600080fd5b50336000806101000a81548173ffffffffffffffffffffffffffffffffffffffff021916908373ffffffffffffffffffffffffffffffffffffffff160217905550610857806100606000396000f3fe608060405234801561001057600080fd5b50600436106100575760003560e01c806333a99e041461005c5780638da5cb5b1461007a578063c4c0a74514610098578063d63dd9b5146100b6578063f1cea4c7146100d4575b600080fd5b6100646100f2565b604051610071919061053c565b60405180910390f35b610082610232565b60405161008f919061059f565b60405180910390f35b6100a0610256565b6040516100ad919061053c565b60405180910390f35b6100be610371565b6040516100cb919061053c565b60405180910390f35b6100dc61048c565b6040516100e991906105d3565b60405180910390f35b606060008054906101000a900473ffffffffffffffffffffffffffffffffffffffff1673ffffffffffffffffffffffffffffffffffffffff163373ffffffffffffffffffffffffffffffffffffffff1614610182576040517f08c379a000000000000000000000000000000000000000000000000000000000815260040161017990610660565b60405180910390fd5b600254600154036101ad576040518060600160405280602681526020016107db60269139905061022f565b60025460015411156101f6576040518060400160405280601d81526020017f5472756d702069732077696e6e6572206f6620456c656374696f6e732e000000815250905061022f565b6040518060400160405280601d81526020017f426964656e2069732077696e6e6572206f6620456c656374696f6e732e00000081525090505b90565b60008054906101000a900473ffffffffffffffffffffffffffffffffffffffff1681565b606060001515600360003373ffffffffffffffffffffffffffffffffffffffff1673ffffffffffffffffffffffffffffffffffffffff16815260200190815260200160002060009054906101000a900460ff161515146102eb576040517f08c379a00000000000000000000000000000000000000000000000000000000081526004016102e2906106cc565b60405180910390fd5b60011515600360003373ffffffffffffffffffffffffffffffffffffffff1673ffffffffffffffffffffffffffffffffffffffff16815260200190815260200160002060009054906101000a905050506002600081548092919061034e9061071b565b919050555060405180606001604052806021815260200161080160219139905090565b606060001515600360003373ffffffffffffffffffffffffffffffffffffffff1673ffffffffffffffffffffffffffffffffffffffff16815260200190815260200160002060009054906101000a900460ff16151514610406576040517f08c379a00000000000000000000000000000000000000000000000000000000081526004016103fd906106cc565b60405180910390fd5b60011515600360003373ffffffffffffffffffffffffffffffffffffffff1673ffffffffffffffffffffffffffffffffffffffff16815260200190815260200160002060009054906101000a90505050600160008154809291906104699061071b565b91905055506040518060600160405280602181526020016107ba60219139905090565b600060025460015461049e9190610763565b905090565b600081519050919050565b600082825260208201905092915050565b60005b838110156104dd5780820151818401526020810190506104c2565b838111156104ec576000848401525b50505050565b6000601f19601f8301169050919050565b600061050e826104a3565b61051881856104ae565b93506105288185602086016104bf565b610531816104f2565b840191505092915050565b600060208201905081810360008301526105568184610503565b905092915050565b600073ffffffffffffffffffffffffffffffffffffffff82169050919050565b60006105898261055e565b9050919050565b6105998161057e565b82525050565b60006020820190506105b46000830184610590565b92915050565b6000819050919050565b6105cd816105ba565b82525050565b60006020820190506105e860008301846105c4565b92915050565b7f546869732066756e6374696f6e206973207265737472696374656420746f207460008201527f686520636f6e74726163742773206f776e657200000000000000000000000000602082015250565b600061064a6033836104ae565b9150610655826105ee565b604082019050919050565b600060208201905081810360008301526106798161063d565b9050919050565b7f596f7520616c726561647920566f7465642e0000000000000000000000000000600082015250565b60006106b66012836104ae565b91506106c182610680565b602082019050919050565b600060208201905081810360008301526106e5816106a9565b9050919050565b7f4e487b7100000000000000000000000000000000000000000000000000000000600052601160045260246000fd5b6000610726826105ba565b91507fffffffffffffffffffffffffffffffffffffffffffffffffffffffffffffffff8203610758576107576106ec565b5b600182019050919050565b600061076e826105ba565b9150610779836105ba565b9250827fffffffffffffffffffffffffffffffffffffffffffffffffffffffffffffffff038211156107ae576107ad6106ec565b5b82820190509291505056fe596f75205375636365737366756c6c7920566f74656420666f72205472756d702e456c656374696f6e7320546965206265747765656e205472756d7020616e6420426964656e2e596f75205375636365737366756c6c7920566f74656420666f7220426964656e2ea26469706673582212204f9087944bab6a1f13c9153b6244217307200774a90e69c2c69841ab1be8c99a64736f6c634300080e0033",
  "immutableReferences": {},
  "source": "pragma solidity >=0.8.0 <0.9.0;\r\n\r\ncontract Voting {\r\n    address public owner;\r\n\r\n    constructor() {\r\n        owner = msg.sender;\r\n    }\r\n\r\n    uint256 voteForTrump;\r\n    uint256 voteForBiden;\r\n    mapping(address => bool) alreadyVoted;\r\n\r\n    modifier onlyOwner(){\r\n    require(\r\n        msg.sender == owner,\r\n        \"This function is restricted to the contract's owner\"\r\n    );\r\n    _;\r\n}\r\n\r\n    function VoteForTrump() public returns (string memory) {\r\n        require(alreadyVoted[msg.sender] == false, \"You already Voted.\");\r\n        alreadyVoted[msg.sender] == true;\r\n        voteForTrump++;\r\n        return (\"You Successfully Voted for Trump.\");\r\n    }\r\n\r\n    function VoteForBiden() public returns (string memory) {\r\n        require(alreadyVoted[msg.sender] == false, \"You already Voted.\");\r\n        alreadyVoted[msg.sender] == true;\r\n        voteForBiden++;\r\n        return (\"You Successfully Voted for Biden.\");\r\n    }\r\n\r\n    function totalVote() public view returns (uint256) {\r\n        return (voteForTrump + voteForBiden);\r\n    }\r\n\r\n    function selectWinner() public onlyOwner view returns (string memory) {\r\n        if (voteForTrump == voteForBiden)\r\n            return (\r\n                \"Elections Tie between Trump and Biden.\"\r\n            );\r\n        else if (voteForTrump > voteForBiden)\r\n            return (\r\n                \"Trump is winner of Elections.\"\r\n            );\r\n        else\r\n            return (\r\n                \"Biden is winner of Elections.\"\r\n            );\r\n    }\r\n}\r\n",
  "sourcePath": "C:\\Users\\Neosoft\\Desktop\\NeoSoft\\Assignments\\VotingApp\\contracts\\Voting.sol",
  "compiler": {
    "name": "solc",
    "version": "0.8.14+commit.80d49f37.Emscripten.clang"
  },
  "schemaVersion": "3.4.7",
  "updatedAt": "2022-06-10T11:27:00.455Z",
  "networkType": "ethereum",
  "devdoc": {
    "kind": "dev",
    "methods": {},
    "version": 1
  },
  "userdoc": {
    "kind": "user",
    "methods": {},
    "version": 1
  }
}